{
  "contractName": "EventContract",
  "abi": [
    {
      "inputs": [
        {
          "internalType": "string",
          "name": "name",
          "type": "string"
        },
        {
          "internalType": "uint256",
          "name": "price",
          "type": "uint256"
        },
        {
          "internalType": "uint256",
          "name": "quantity",
          "type": "uint256"
        }
      ],
      "payable": false,
      "stateMutability": "nonpayable",
      "type": "constructor"
    },
    {
      "constant": false,
      "inputs": [],
      "name": "buyTicket",
      "outputs": [],
      "payable": true,
      "stateMutability": "payable",
      "type": "function"
    },
    {
      "constant": false,
      "inputs": [
        {
          "internalType": "contract Ticket",
          "name": "ticket",
          "type": "address"
        }
      ],
      "name": "returnTicket",
      "outputs": [],
      "payable": false,
      "stateMutability": "nonpayable",
      "type": "function"
    },
    {
      "constant": true,
      "inputs": [],
      "name": "getQuantity",
      "outputs": [
        {
          "internalType": "uint256",
          "name": "",
          "type": "uint256"
        }
      ],
      "payable": false,
      "stateMutability": "view",
      "type": "function"
    },
    {
      "constant": false,
      "inputs": [],
      "name": "getAvailableTicket",
      "outputs": [
        {
          "internalType": "contract Ticket",
          "name": "",
          "type": "address"
        }
      ],
      "payable": false,
      "stateMutability": "nonpayable",
      "type": "function"
    },
    {
      "constant": false,
      "inputs": [],
      "name": "getEventName",
      "outputs": [
        {
          "internalType": "string",
          "name": "",
          "type": "string"
        }
      ],
      "payable": false,
      "stateMutability": "nonpayable",
      "type": "function"
    }
  ],
  "bytecode": "0x608060405234801561001057600080fd5b506040516115b63803806115b68339818101604052606081101561003357600080fd5b810190808051604051939291908464010000000082111561005357600080fd5b8382019150602082018581111561006957600080fd5b825186600182028301116401000000008211171561008657600080fd5b8083526020830192505050908051906020019080838360005b838110156100ba57808201518184015260208101905061009f565b50505050905090810190601f1680156100e75780820380516001836020036101000a031916815260200191505b5060405260200180519060200190929190805190602001909291905050506305f5e100836040516020018082805190602001908083835b60208310610141578051825260208201915060208101905060208303925061011e565b6001836020036101000a0380198251168184511680821785525050505050509050019150506040516020818303038152906040528051906020012060001c8161018657fe5b0660008190555082600190805190602001906101a39291906102ad565b5081600281905550806003819055506101c06101c860201b60201c565b50505061035f565b60008090505b6003548110156102aa576004306040516101e79061032d565b808273ffffffffffffffffffffffffffffffffffffffff1673ffffffffffffffffffffffffffffffffffffffff168152602001915050604051809103906000f080158015610239573d6000803e3d6000fd5b5090806001815401808255809150509060018203906000526020600020016000909192909190916101000a81548173ffffffffffffffffffffffffffffffffffffffff021916908373ffffffffffffffffffffffffffffffffffffffff1602179055505080806001019150506101ce565b50565b828054600181600116156101000203166002900490600052602060002090601f016020900481019282601f106102ee57805160ff191683800117855561031c565b8280016001018555821561031c579182015b8281111561031b578251825591602001919060010190610300565b5b509050610329919061033a565b5090565b610cf0806108c683390190565b61035c91905b80821115610358576000816000905550600101610340565b5090565b90565b6105588061036e6000396000f3fe60806040526004361061004a5760003560e01c80630115949c1461004f57806333dbbef61461007a578063b81e43fc146100cb578063d56520931461015b578063edca914c146101b2575b600080fd5b34801561005b57600080fd5b506100646101bc565b6040518082815260200191505060405180910390f35b34801561008657600080fd5b506100c96004803603602081101561009d57600080fd5b81019080803573ffffffffffffffffffffffffffffffffffffffff1690602001909291905050506101c1565b005b3480156100d757600080fd5b506100e061022a565b6040518080602001828103825283818151815260200191508051906020019080838360005b83811015610120578082015181840152602081019050610105565b50505050905090810190601f16801561014d5780820380516001836020036101000a031916815260200191505b509250505060405180910390f35b34801561016757600080fd5b506101706102cc565b604051808273ffffffffffffffffffffffffffffffffffffffff1673ffffffffffffffffffffffffffffffffffffffff16815260200191505060405180910390f35b6101ba610479565b005b600090565b60048190806001815401808255809150509060018203906000526020600020016000909192909190916101000a81548173ffffffffffffffffffffffffffffffffffffffff021916908373ffffffffffffffffffffffffffffffffffffffff1602179055505050565b606060018054600181600116156101000203166002900480601f0160208091040260200160405190810160405280929190818152602001828054600181600116156101000203166002900480156102c25780601f10610297576101008083540402835291602001916102c2565b820191906000526020600020905b8154815290600101906020018083116102a557829003601f168201915b5050505050905090565b600080600090505b60048054905081101561040757600481815481106102ee57fe5b9060005260206000200160009054906101000a900473ffffffffffffffffffffffffffffffffffffffff1673ffffffffffffffffffffffffffffffffffffffff166306c826d660006040518263ffffffff1660e01b81526004018082600381111561035557fe5b60ff168152602001915050602060405180830381600087803b15801561037a57600080fd5b505af115801561038e573d6000803e3d6000fd5b505050506040513d60208110156103a457600080fd5b8101908080519060200190929190505050156103fa57600481815481106103c757fe5b9060005260206000200160009054906101000a900473ffffffffffffffffffffffffffffffffffffffff16915050610476565b80806001019150506102d4565b506040517f08c379a00000000000000000000000000000000000000000000000000000000081526004018080602001828103825260148152602001807f4e6f205469636b65747320617661696c61626c6500000000000000000000000081525060200191505060405180910390fd5b90565b600254341161048757600080fd5b60006104916102cc565b90508073ffffffffffffffffffffffffffffffffffffffff166356de96db60016040518263ffffffff1660e01b8152600401808260038111156104d057fe5b60ff168152602001915050600060405180830381600087803b1580156104f557600080fd5b505af1158015610509573d6000803e3d6000fd5b50505050600360008154809291906001900391905055505056fea265627a7a723158206d5ed21fac37be0e5a7a5be5216a247d73beb5fb262e900cd400fad195d14b8064736f6c634300051000326080604052604051610cf0380380610cf08339818101604052602081101561002657600080fd5b81019080805190602001909291905050506305f5e1008173ffffffffffffffffffffffffffffffffffffffff1663b81e43fc6040518163ffffffff1660e01b8152600401600060405180830381600087803b15801561008457600080fd5b505af1158015610098573d6000803e3d6000fd5b505050506040513d6000823e3d601f19601f8201168201806040525060208110156100c257600080fd5b81019080805160405193929190846401000000008211156100e257600080fd5b838201915060208201858111156100f857600080fd5b825186600182028301116401000000008211171561011557600080fd5b8083526020830192505050908051906020019080838360005b8381101561014957808201518184015260208101905061012e565b50505050905090810190601f1680156101765780820380516001836020036101000a031916815260200191505b506040525050506040516020018082805190602001908083835b602083106101b35780518252602082019150602081019050602083039250610190565b6001836020036101000a0380198251168184511680821785525050505050509050019150506040516020818303038152906040528051906020012060001c816101f857fe5b0660008190555080600160006101000a81548173ffffffffffffffffffffffffffffffffffffffff021916908373ffffffffffffffffffffffffffffffffffffffff16021790555050610aa0806102506000396000f3fe6080604052600436106100a75760003560e01c806373fac6f01161006457806373fac6f01461025c578063b6f5645814610273578063c19d93fb14610303578063c7981b1b1461033c578063d696069714610353578063f9f0164a1461035d576100a7565b806306c826d6146100ac57806308551a531461010257806335a063b4146101595780634a52bba51461017057806356de96db146101c75780637150d8ae14610205575b600080fd5b3480156100b857600080fd5b506100e8600480360360208110156100cf57600080fd5b81019080803560ff169060200190929190505050610388565b604051808215151515815260200191505060405180910390f35b34801561010e57600080fd5b506101176103ca565b604051808273ffffffffffffffffffffffffffffffffffffffff1673ffffffffffffffffffffffffffffffffffffffff16815260200191505060405180910390f35b34801561016557600080fd5b5061016e6103f0565b005b34801561017c57600080fd5b50610185610538565b604051808273ffffffffffffffffffffffffffffffffffffffff1673ffffffffffffffffffffffffffffffffffffffff16815260200191505060405180910390f35b3480156101d357600080fd5b50610203600480360360208110156101ea57600080fd5b81019080803560ff169060200190929190505050610540565b005b34801561021157600080fd5b5061021a610566565b604051808273ffffffffffffffffffffffffffffffffffffffff1673ffffffffffffffffffffffffffffffffffffffff16815260200191505060405180910390f35b34801561026857600080fd5b5061027161058c565b005b34801561027f57600080fd5b506102886106d7565b6040518080602001828103825283818151815260200191508051906020019080838360005b838110156102c85780820151818401526020810190506102ad565b50505050905090810190601f1680156102f55780820380516001836020036101000a031916815260200191505b509250505060405180910390f35b34801561030f57600080fd5b50610318610841565b6040518082600381111561032857fe5b60ff16815260200191505060405180910390f35b34801561034857600080fd5b50610351610854565b005b61035b61099e565b005b34801561036957600080fd5b50610372610a65565b6040518082815260200191505060405180910390f35b600081600381111561039657fe5b600360149054906101000a900460ff1660038111156103b157fe5b14156103c057600190506103c5565b600090505b919050565b600260009054906101000a900473ffffffffffffffffffffffffffffffffffffffff1681565b600260009054906101000a900473ffffffffffffffffffffffffffffffffffffffff1673ffffffffffffffffffffffffffffffffffffffff163373ffffffffffffffffffffffffffffffffffffffff161461044a57600080fd5b600080600381111561045857fe5b600360149054906101000a900460ff16600381111561047357fe5b1461047d57600080fd5b7f72c874aeff0b183a56e2b79c71b46e1aed4dee5e09862134b8821ba2fddbf8bf60405160405180910390a160038060146101000a81548160ff021916908360038111156104c757fe5b0217905550600260009054906101000a900473ffffffffffffffffffffffffffffffffffffffff1673ffffffffffffffffffffffffffffffffffffffff166108fc479081150290604051600060405180830381858888f19350505050158015610534573d6000803e3d6000fd5b5050565b600030905090565b80600360146101000a81548160ff0219169083600381111561055e57fe5b021790555050565b600360009054906101000a900473ffffffffffffffffffffffffffffffffffffffff1681565b600360009054906101000a900473ffffffffffffffffffffffffffffffffffffffff1673ffffffffffffffffffffffffffffffffffffffff163373ffffffffffffffffffffffffffffffffffffffff16146105e657600080fd5b60018060038111156105f457fe5b600360149054906101000a900460ff16600381111561060f57fe5b1461061957600080fd5b7f544c765b33ca411cce832250371569244f765a17fcd217832be093f0fd5fa45b60405160405180910390a16002600360146101000a81548160ff0219169083600381111561066457fe5b0217905550600360009054906101000a900473ffffffffffffffffffffffffffffffffffffffff1673ffffffffffffffffffffffffffffffffffffffff166108fc6000549081150290604051600060405180830381858888f193505050501580156106d3573d6000803e3d6000fd5b5050565b6060600160009054906101000a900473ffffffffffffffffffffffffffffffffffffffff1673ffffffffffffffffffffffffffffffffffffffff1663b81e43fc6040518163ffffffff1660e01b8152600401600060405180830381600087803b15801561074357600080fd5b505af1158015610757573d6000803e3d6000fd5b505050506040513d6000823e3d601f19601f82011682018060405250602081101561078157600080fd5b81019080805160405193929190846401000000008211156107a157600080fd5b838201915060208201858111156107b757600080fd5b82518660018202830111640100000000821117156107d457600080fd5b8083526020830192505050908051906020019080838360005b838110156108085780820151818401526020810190506107ed565b50505050905090810190601f1680156108355780820380516001836020036101000a031916815260200191505b50604052505050905090565b600360149054906101000a900460ff1681565b600260009054906101000a900473ffffffffffffffffffffffffffffffffffffffff1673ffffffffffffffffffffffffffffffffffffffff163373ffffffffffffffffffffffffffffffffffffffff16146108ae57600080fd5b60028060038111156108bc57fe5b600360149054906101000a900460ff1660038111156108d757fe5b146108e157600080fd5b7f8616bbbbad963e4e65b1366f1d75dfb63f9e9704bbbf91fb01bec70849906cf760405160405180910390a160038060146101000a81548160ff0219169083600381111561092b57fe5b0217905550600260009054906101000a900473ffffffffffffffffffffffffffffffffffffffff1673ffffffffffffffffffffffffffffffffffffffff166108fc6000549081150290604051600060405180830381858888f1935050505015801561099a573d6000803e3d6000fd5b5050565b60008060038111156109ac57fe5b600360149054906101000a900460ff1660038111156109c757fe5b146109d157600080fd5b7f1e393d8f648e647a6dfadc3679e705971550b75e5c722b193a5bae02151894c160405160405180910390a133600360006101000a81548173ffffffffffffffffffffffffffffffffffffffff021916908373ffffffffffffffffffffffffffffffffffffffff1602179055506001600360146101000a81548160ff02191690836003811115610a5d57fe5b021790555050565b6000548156fea265627a7a72315820ad76600f2b3beb397ebce128e2147ec794ad8b1c9c2b7acca513fcb791d586b664736f6c63430005100032",
  "source": "pragma solidity ^0.5.16;\r\n\r\n/**\r\n* @title Decentralized Ticket Platform\r\n* @author BitBlock\r\n* @notice Please use at your own risk.\r\n* @dev The contract is a stub and not yet implemented.\r\n*/\r\n\r\ncontract EventContract {\r\n\r\n    uint256 private eventId;\r\n    string private eventName;\r\n    uint256 private eventPrice;\r\n    uint256 private eventQuantity;\r\n    Ticket[] private eventTickets;\r\n\r\n    constructor(string memory name, uint256 price, uint256 quantity) public {\r\n        eventId = uint(keccak256(abi.encodePacked(name))) % (10 ** 8);\r\n        eventName = name;\r\n        eventPrice = price;\r\n        eventQuantity = quantity;\r\n        generateTickets();\r\n    }\r\n\r\n    function generateTickets() internal {\r\n        for(uint i = 0; i < eventQuantity; i++){\r\n            eventTickets.push(new Ticket(this));\r\n        }\r\n    }\r\n\r\n    function buyTicket() public payable {\r\n        require(msg.value > eventPrice);\r\n\r\n        Ticket ticket = getAvailableTicket();\r\n        ticket.setState(Ticket.State.Locked);\r\n        //send Ticket to buyer\r\n        //send money to event creator\r\n        eventQuantity--;\r\n    }\r\n\r\n    // function getEntry(Ticket ticket) public returns(bool) {\r\n    //     string memory hash; //hash des tokens rechnen;\r\n    //     bool entry = false; //prüfen ob dieser token verkauft wurde, abgleich mit array;\r\n    //     return entry;\r\n    // }\r\n\r\n    function returnTicket(Ticket ticket) public {\r\n        eventTickets.push(ticket);\r\n        //send money to seller\r\n    }\r\n\r\n    function getQuantity() public view returns(uint) {\r\n\r\n    }\r\n\r\n    // Note that this function has a maximum complexity of O(n)\r\n    function getAvailableTicket() public returns(Ticket) {\r\n        for (uint256 i = 0; i < eventTickets.length; i++) {\r\n        if (eventTickets[i].checkState(Ticket.State.Created))\r\n            return eventTickets[i];\r\n        }\r\n        revert('No Tickets available');\r\n    }\r\n\r\n    function getEventName() public returns(string memory) {\r\n        return eventName;\r\n    }\r\n}\r\n\r\ncontract Ticket {\r\n\r\n        uint256 public ticketId;\r\n        EventContract private ticketEvent;\r\n        address payable public seller;\r\n        address payable public buyer;\r\n\r\n        enum State { Created, Locked, Released, Inactive }\r\n        State public state;\r\n\r\n        modifier onlyBuyer() {\r\n          require(msg.sender == buyer);\r\n          _;\r\n        }\r\n\r\n        modifier onlySeller() {\r\n          require(msg.sender == seller);\r\n          _;\r\n        }\r\n\r\n        modifier inState(State _state) {\r\n          require(state == _state);\r\n          _;\r\n        }\r\n\r\n        function checkState(State _state) public returns(bool) {\r\n            if (state == _state)\r\n                return true;\r\n            return false;\r\n        }\r\n\r\n        event Aborted();\r\n        event Confirmed();\r\n        event Received();\r\n        event Refunded();\r\n\r\n        constructor(EventContract eventContract) public payable {\r\n          ticketId = uint(keccak256(abi.encodePacked(eventContract.getEventName()))) % (10 ** 8);\r\n          ticketEvent = eventContract;\r\n        }\r\n\r\n        function abort()\r\n          external\r\n          onlySeller\r\n          inState(State.Created)\r\n        {\r\n          emit Aborted();\r\n          state = State.Inactive;\r\n\r\n          seller.transfer(address(this).balance);\r\n        }\r\n\r\n        function confirmPurchase()\r\n          external\r\n          inState(State.Created)\r\n          payable\r\n        {\r\n          emit Confirmed();\r\n          buyer = msg.sender;\r\n          state = State.Locked;\r\n        }\r\n\r\n        function confirmReceived()\r\n          external\r\n          onlyBuyer\r\n          inState(State.Locked)\r\n        {\r\n          emit Received();\r\n          state = State.Released;\r\n\r\n          buyer.transfer(ticketId);\r\n        }\r\n\r\n        function refundSeller()\r\n          external\r\n          onlySeller\r\n          inState(State.Released)\r\n        {\r\n          emit Refunded();\r\n          state = State.Inactive;\r\n\r\n          seller.transfer(ticketId);\r\n        }\r\n\r\n        function returnTicket() public returns(Ticket) {\r\n            return this;\r\n            //send money to seller\r\n        }\r\n\r\n        function setState(State _state) public {\r\n            state = _state;\r\n        }\r\n\r\n        function getTicketEventName() public returns(string memory) {\r\n            return ticketEvent.getEventName();\r\n        }\r\n}\r\n",
  "sourcePath": "C:\\Users\\micha\\OneDrive\\Dokumente\\HSLU\\BCHAIN\\Bitblock\\src\\contracts\\EventContract.sol",
  "compiler": {
    "name": "solc",
    "version": "0.5.16+commit.9c3226ce.Emscripten.clang"
  },
  "schemaVersion": "3.4.11",
  "updatedAt": "2022-11-25T22:55:52.352Z",
  "devdoc": {
    "author": "BitBlock",
    "details": "The contract is a stub and not yet implemented.",
    "methods": {},
    "title": "Decentralized Ticket Platform"
  },
  "userdoc": {
    "methods": {},
    "notice": "Please use at your own risk."
  }
}